{
    "contractName": "MedicalData",
    "abi": [
        {
            "anonymous": false,
            "inputs": [
                {
                    "indexed": false,
                    "internalType": "uint256",
                    "name": "id",
                    "type": "uint256"
                },
                {
                    "indexed": true,
                    "internalType": "address",
                    "name": "patient",
                    "type": "address"
                },
                {
                    "indexed": false,
                    "internalType": "string",
                    "name": "prescriptionHash",
                    "type": "string"
                },
                {
                    "indexed": false,
                    "internalType": "string",
                    "name": "testResultsHash",
                    "type": "string"
                }
            ],
            "name": "MedicalDataStored",
            "type": "event"
        },
        {
            "inputs": [
                {
                    "internalType": "uint256",
                    "name": "",
                    "type": "uint256"
                }
            ],
            "name": "medicalRecords",
            "outputs": [
                {
                    "internalType": "uint256",
                    "name": "id",
                    "type": "uint256"
                },
                {
                    "internalType": "address",
                    "name": "patient",
                    "type": "address"
                },
                {
                    "internalType": "string",
                    "name": "prescriptionHash",
                    "type": "string"
                },
                {
                    "internalType": "string",
                    "name": "testResultsHash",
                    "type": "string"
                }
            ],
            "stateMutability": "view",
            "type": "function"
        },
        {
            "inputs": [],
            "name": "recordCount",
            "outputs": [
                {
                    "internalType": "uint256",
                    "name": "",
                    "type": "uint256"
                }
            ],
            "stateMutability": "view",
            "type": "function"
        },
        {
            "inputs": [
                {
                    "internalType": "string",
                    "name": "_prescriptionHash",
                    "type": "string"
                },
                {
                    "internalType": "string",
                    "name": "_testResultsHash",
                    "type": "string"
                }
            ],
            "name": "storeMedicalData",
            "outputs": [],
            "stateMutability": "nonpayable",
            "type": "function"
        }
    ],
    "bytecode": "60808060405234601557610609908161001a8239f35b5f80fdfe60806040526004361015610011575f80fd5b5f3560e01c80637564a13c146103e2578063900407bc146103c557639110afac1461003a575f80fd5b346103c15760403660031901126103c15760043567ffffffffffffffff81116103c15761006b90369060040161057d565b60243567ffffffffffffffff81116103c15761008b90369060040161057d565b6001545f1981146103ad5760010191826001556040516080810181811067ffffffffffffffff8211176102e35760405283815260208101338152604082019083825260608301958587525f525f60205260405f2092518355600183019060018060a01b039051166bffffffffffffffffffffffff60a01b82541617905560028201905180519067ffffffffffffffff82116102e35761012a835461045f565b601f8111610368575b50602090601f8311600114610302576003949392915f91836102f7575b50508160011b915f1990861b1c19161790555b01925192835167ffffffffffffffff81116102e357610182825461045f565b601f811161029e575b506020601f821160011461021a5781907fb4198c51ba5c61db60792f3d891e803a1986f739430b8c346d9c19c845d886bd95965f9261020f575b50508160011b915f199060031b1c19161790555b60015461020a6101fb6040519384938452606060208501526060840190610559565b82810360408401523395610559565b0390a2005b015190505f806101c5565b601f19821695835f52815f20965f5b8181106102865750917fb4198c51ba5c61db60792f3d891e803a1986f739430b8c346d9c19c845d886bd96979184600195941061026e575b505050811b0190556101d9565b01515f1960f88460031b161c191690555f8080610261565b83830151895560019098019760209384019301610229565b825f5260205f20601f830160051c810191602084106102d9575b601f0160051c01905b8181106102ce575061018b565b5f81556001016102c1565b90915081906102b8565b634e487b7160e01b5f52604160045260245ffd5b015190505f80610150565b90601f19831691845f52815f20925f5b818110610350575091600193918560039897969410610339575b505050811b019055610163565b01515f1983881b60f8161c191690555f808061032c565b92936020600181928786015181550195019301610312565b835f5260205f20601f840160051c810191602085106103a3575b601f0160051c01905b8181106103985750610133565b5f815560010161038b565b9091508190610382565b634e487b7160e01b5f52601160045260245ffd5b5f80fd5b346103c1575f3660031901126103c1576020600154604051908152f35b346103c15760203660031901126103c1576004355f525f60205260405f20805461045b60018060a01b036001840154169261044d61042e6003610427600285016104b9565b93016104b9565b9160405195869586526020860152608060408601526080850190610559565b908382036060850152610559565b0390f35b90600182811c9216801561048d575b602083101461047957565b634e487b7160e01b5f52602260045260245ffd5b91607f169161046e565b90601f8019910116810190811067ffffffffffffffff8211176102e357604052565b9060405191825f8254926104cc8461045f565b808452936001811690811561053757506001146104f3575b506104f192500383610497565b565b90505f9291925260205f20905f915b81831061051b5750509060206104f1928201015f6104e4565b6020919350806001915483858901015201910190918492610502565b9050602092506104f194915060ff191682840152151560051b8201015f6104e4565b805180835260209291819084018484015e5f828201840152601f01601f1916010190565b81601f820112156103c15780359067ffffffffffffffff82116102e357604051926105b2601f8401601f191660200185610497565b828452602083830101116103c157815f92602080930183860137830101529056fea2646970667358221220c25815d7a790e66c313216024542667f34f7cf1bb16b8bb0e27ec23dc7c9b85064736f6c634300081c0033",
    "sourcePath": "c:/Users/soumy/OneDrive/Desktop/Hospitell_live_workspace/contracts/MedicalData.sol",
    "compiler": {
        "name": "solc",
        "version": "0.8.28+commit.7893614a"
    },
    "functionHashes": {
        "medicalRecords(uint256)": "7564a13c",
        "recordCount()": "900407bc",
        "storeMedicalData(string,string)": "9110afac"
    },
    "gasEstimates": {
        "creation": {
            "codeDepositCost": "309000",
            "executionCost": "356",
            "totalCost": "309356"
        },
        "external": {
            "medicalRecords(uint256)": "infinite",
            "recordCount()": "2270",
            "storeMedicalData(string,string)": "infinite"
        }
    }
}